{
  "contractName": "Capture",
  "abi": [
    {
      "constant": true,
      "inputs": [
        {
          "name": "",
          "type": "uint256"
        }
      ],
      "name": "pokemons",
      "outputs": [
        {
          "name": "",
          "type": "address"
        }
      ],
      "payable": false,
      "stateMutability": "view",
      "type": "function"
    },
    {
      "inputs": [],
      "payable": false,
      "stateMutability": "nonpayable",
      "type": "constructor"
    },
    {
      "constant": false,
      "inputs": [
        {
          "name": "_pokemonId",
          "type": "uint256"
        }
      ],
      "name": "catchPokemon",
      "outputs": [
        {
          "name": "",
          "type": "uint256"
        }
      ],
      "payable": true,
      "stateMutability": "payable",
      "type": "function"
    },
    {
      "constant": false,
      "inputs": [
        {
          "name": "_pokemonId",
          "type": "uint256"
        }
      ],
      "name": "releasePokemon",
      "outputs": [
        {
          "name": "",
          "type": "uint256"
        }
      ],
      "payable": true,
      "stateMutability": "payable",
      "type": "function"
    },
    {
      "constant": true,
      "inputs": [],
      "name": "getPokemons",
      "outputs": [
        {
          "name": "",
          "type": "address[48]"
        }
      ],
      "payable": false,
      "stateMutability": "view",
      "type": "function"
    },
    {
      "constant": true,
      "inputs": [
        {
          "name": "_pokemonId",
          "type": "uint256"
        }
      ],
      "name": "getPokemonOwner",
      "outputs": [
        {
          "name": "",
          "type": "address"
        }
      ],
      "payable": false,
      "stateMutability": "view",
      "type": "function"
    }
  ],
  "bytecode": "0x608060405234801561001057600080fd5b5061062b806100206000396000f30060806040526004361061006d576000357c0100000000000000000000000000000000000000000000000000000000900463ffffffff16806339bcadd11461007257806385831079146100a65780638a6b8e22146101135780639ea30fae14610147578063bd6ede73146101b4575b600080fd5b61009060048036038101908080359060200190929190505050610207565b6040518082815260200191505060405180910390f35b3480156100b257600080fd5b506100d160048036038101908080359060200190929190505050610369565b604051808273ffffffffffffffffffffffffffffffffffffffff1673ffffffffffffffffffffffffffffffffffffffff16815260200191505060405180910390f35b6101316004803603810190808035906020019092919050505061039e565b6040518082815260200191505060405180910390f35b34801561015357600080fd5b506101726004803603810190808035906020019092919050505061051e565b604051808273ffffffffffffffffffffffffffffffffffffffff1673ffffffffffffffffffffffffffffffffffffffff16815260200191505060405180910390f35b3480156101c057600080fd5b506101c961055a565b6040518082603060200280838360005b838110156101f45780820151818401526020810190506101d9565b5050505090500191505060405180910390f35b6000816001811015801561021c5750602f8111155b151561022757600080fd5b6000603060003373ffffffffffffffffffffffffffffffffffffffff1673ffffffffffffffffffffffffffffffffffffffff1681526020019081526020016000205414151561027557600080fd5b6000806001830360308110151561028857fe5b0160009054906101000a900473ffffffffffffffffffffffffffffffffffffffff1673ffffffffffffffffffffffffffffffffffffffff161415156102cc57600080fd5b6000603060003373ffffffffffffffffffffffffffffffffffffffff1673ffffffffffffffffffffffffffffffffffffffff168152602001908152602001600020819055506000806001850360308110151561032457fe5b0160006101000a81548173ffffffffffffffffffffffffffffffffffffffff021916908373ffffffffffffffffffffffffffffffffffffffff16021790555050919050565b60008160308110151561037857fe5b016000915054906101000a900473ffffffffffffffffffffffffffffffffffffffff1681565b600081600181101580156103b35750602f8111155b15156103be57600080fd5b6000603060003373ffffffffffffffffffffffffffffffffffffffff1673ffffffffffffffffffffffffffffffffffffffff1681526020019081526020016000205414151561040c57600080fd5b6000806001830360308110151561041f57fe5b0160009054906101000a900473ffffffffffffffffffffffffffffffffffffffff1673ffffffffffffffffffffffffffffffffffffffff1614151561046357600080fd5b6729a2241af62c00003414151561047957600080fd5b60018303603060003373ffffffffffffffffffffffffffffffffffffffff1673ffffffffffffffffffffffffffffffffffffffff16815260200190815260200160002081905550336000600185036030811015156104d357fe5b0160006101000a81548173ffffffffffffffffffffffffffffffffffffffff021916908373ffffffffffffffffffffffffffffffffffffffff16021790555060018303915050919050565b6000806001830360308110151561053157fe5b0160009054906101000a900473ffffffffffffffffffffffffffffffffffffffff169050919050565b6105626105db565b60006030806020026040519081016040528092919082603080156105d1576020028201915b8160009054906101000a900473ffffffffffffffffffffffffffffffffffffffff1673ffffffffffffffffffffffffffffffffffffffff1681526020019060010190808311610587575b5050505050905090565b610600604051908101604052806030906020820280388339808201915050905050905600a165627a7a723058201ad424cc0bbeccf062b477edad389b08f886a4467180d73eaf12e27ee51a174c0029",
  "source": "pragma solidity ^0.4.23;\n\n// for capture pokemon\ncontract Capture {\n\n    address[48] public pokemons; // max 48 dressors\n    mapping (address => uint) pokemonByDresser; // return pokemon by dresser address\n    // mapping (uint => address) DresserByPokemon; // return dresser address by pokemon\n\n    constructor() public {\n        \n    }\n\n    modifier checkIfBelong(uint _pokemonId) {\n         // check if pokemon exist\n        require(_pokemonId >= 1 && _pokemonId <= 47);\n        // check if dresser has not already pokemon\n        require(pokemonByDresser[msg.sender] == 0);\n        // check if pokemon has not already dresser\n        require(pokemons[_pokemonId - 1] == 0);\n        _;\n    }\n\n    /**\n        catch pokemon if it doesn't belong to anyone\n     */\n    function catchPokemon(uint _pokemonId) public payable checkIfBelong(_pokemonId) returns (uint) {\n        // check if transaction has a price\n        // uint price = calculatePrice(_pokemonId);\n        require(msg.value == 3 ether);\n        \n        // affect pokemon at dresser\n        pokemonByDresser[msg.sender] = _pokemonId - 1;\n        // affect dresser at pokemon\n        pokemons[_pokemonId - 1] = msg.sender;\n        return _pokemonId - 1;\n    }\n\n    /** \n        release pokemon and receive 10 ether\n    */\n    function releasePokemon(uint _pokemonId) public payable checkIfBelong(_pokemonId) returns (uint) {\n        pokemonByDresser[msg.sender] = 0;\n        // affect dresser at pokemon\n        pokemons[_pokemonId - 1] = 0;\n    }\n\n    // Retrieving the pokemon list for the dresser\n    function getPokemons() public view returns (address[48]) {\n        return pokemons;\n    }\n\n    function getPokemonOwner(uint _pokemonId) public view returns (address) {\n        return pokemons[_pokemonId - 1];\n    }\n\n    // calculate the price according to the pokemonId\n    function calculatePrice(uint _pokemonId) internal pure returns (uint) {\n        uint price = _pokemonId % 3;\n\n        if (price == 2) {\n            price = 12;\n        } else if (price == 1) {\n            price = 3;\n        } else {\n            price = 25;\n        }\n        return price;\n    }\n\n}",
  "sourcePath": "/Users/nacim/Documents/crypto/poKrypto/contracts/Capture.sol",
  "compiler": {
    "name": "solc",
    "version": "0.4.24+commit.e67f0147.Emscripten.clang"
  },
  "schemaVersion": "2.0.0",
  "updatedAt": "2018-06-01T14:30:17.893Z"
}